{
  "contractName": "Paciente",
  "abi": [
    {
      "constant": true,
      "inputs": [],
      "name": "name",
      "outputs": [
        {
          "name": "",
          "type": "string"
        }
      ],
      "payable": false,
      "stateMutability": "view",
      "type": "function",
      "signature": "0x06fdde03"
    },
    {
      "constant": true,
      "inputs": [
        {
          "name": "",
          "type": "uint8"
        }
      ],
      "name": "owner",
      "outputs": [
        {
          "name": "",
          "type": "address"
        }
      ],
      "payable": false,
      "stateMutability": "view",
      "type": "function",
      "signature": "0x090a0fa7"
    },
    {
      "constant": true,
      "inputs": [
        {
          "name": "",
          "type": "address"
        }
      ],
      "name": "medico",
      "outputs": [
        {
          "name": "",
          "type": "bool"
        }
      ],
      "payable": false,
      "stateMutability": "view",
      "type": "function",
      "signature": "0x9aa6c9da"
    },
    {
      "constant": true,
      "inputs": [],
      "name": "pressureCount",
      "outputs": [
        {
          "name": "",
          "type": "uint8"
        }
      ],
      "payable": false,
      "stateMutability": "view",
      "type": "function",
      "signature": "0xbb660341"
    },
    {
      "constant": true,
      "inputs": [
        {
          "name": "",
          "type": "uint8"
        }
      ],
      "name": "pressures",
      "outputs": [
        {
          "name": "sistole",
          "type": "uint8"
        },
        {
          "name": "diastole",
          "type": "uint8"
        },
        {
          "name": "date",
          "type": "string"
        },
        {
          "name": "time",
          "type": "string"
        }
      ],
      "payable": false,
      "stateMutability": "view",
      "type": "function",
      "signature": "0xc2aad0f3"
    },
    {
      "inputs": [],
      "payable": false,
      "stateMutability": "nonpayable",
      "type": "constructor",
      "signature": "constructor"
    },
    {
      "anonymous": false,
      "inputs": [
        {
          "indexed": false,
          "name": "pressureCount",
          "type": "uint8"
        },
        {
          "indexed": false,
          "name": "sistole",
          "type": "uint8"
        },
        {
          "indexed": false,
          "name": "diastole",
          "type": "uint8"
        },
        {
          "indexed": false,
          "name": "hora",
          "type": "uint8"
        },
        {
          "indexed": false,
          "name": "minuto",
          "type": "uint8"
        }
      ],
      "name": "addedPressure",
      "type": "event",
      "signature": "0x52710def13f6ac10ad7280428ebf34c6d05304f704f219739b95cd1a6afbe407"
    },
    {
      "constant": false,
      "inputs": [
        {
          "name": "_sistole",
          "type": "uint8"
        },
        {
          "name": "_diastole",
          "type": "uint8"
        },
        {
          "name": "_date",
          "type": "string"
        },
        {
          "name": "_time",
          "type": "string"
        }
      ],
      "name": "addPressao",
      "outputs": [],
      "payable": false,
      "stateMutability": "nonpayable",
      "type": "function",
      "signature": "0x407d06b3"
    }
  ],
  "bytecode": "0x608060405234801561001057600080fd5b506040805190810160405280601981526020017f53657520636f6e747261746f2064652070616369656e746573000000000000008152506000908051906020019061005c929190610062565b50610107565b828054600181600116156101000203166002900490600052602060002090601f016020900481019282601f106100a357805160ff19168380011785556100d1565b828001600101855582156100d1579182015b828111156100d05782518255916020019190600101906100b5565b5b5090506100de91906100e2565b5090565b61010491905b808211156101005760008160009055506001016100e8565b5090565b90565b610aa1806101166000396000f3fe608060405260043610610078576000357c0100000000000000000000000000000000000000000000000000000000900463ffffffff16806306fdde031461007d578063090a0fa71461010d578063407d06b31461018b5780639aa6c9da14610304578063bb6603411461036d578063c2aad0f31461039e575b600080fd5b34801561008957600080fd5b506100926104db565b6040518080602001828103825283818151815260200191508051906020019080838360005b838110156100d25780820151818401526020810190506100b7565b50505050905090810190601f1680156100ff5780820380516001836020036101000a031916815260200191505b509250505060405180910390f35b34801561011957600080fd5b506101496004803603602081101561013057600080fd5b81019080803560ff169060200190929190505050610579565b604051808273ffffffffffffffffffffffffffffffffffffffff1673ffffffffffffffffffffffffffffffffffffffff16815260200191505060405180910390f35b34801561019757600080fd5b50610302600480360360808110156101ae57600080fd5b81019080803560ff169060200190929190803560ff169060200190929190803590602001906401000000008111156101e557600080fd5b8201836020820111156101f757600080fd5b8035906020019184600183028401116401000000008311171561021957600080fd5b91908080601f016020809104026020016040519081016040528093929190818152602001838380828437600081840152601f19601f8201169050808301925050505050505091929192908035906020019064010000000081111561027c57600080fd5b82018360208201111561028e57600080fd5b803590602001918460018302840111640100000000831117156102b057600080fd5b91908080601f016020809104026020016040519081016040528093929190818152602001838380828437600081840152601f19601f8201169050808301925050505050505091929192905050506105ac565b005b34801561031057600080fd5b506103536004803603602081101561032757600080fd5b81019080803573ffffffffffffffffffffffffffffffffffffffff169060200190929190505050610823565b604051808215151515815260200191505060405180910390f35b34801561037957600080fd5b50610382610843565b604051808260ff1660ff16815260200191505060405180910390f35b3480156103aa57600080fd5b506103da600480360360208110156103c157600080fd5b81019080803560ff169060200190929190505050610856565b604051808560ff1660ff1681526020018460ff1660ff1681526020018060200180602001838103835285818151815260200191508051906020019080838360005b8381101561043657808201518184015260208101905061041b565b50505050905090810190601f1680156104635780820380516001836020036101000a031916815260200191505b50838103825284818151815260200191508051906020019080838360005b8381101561049c578082015181840152602081019050610481565b50505050905090810190601f1680156104c95780820380516001836020036101000a031916815260200191505b50965050505050505060405180910390f35b60008054600181600116156101000203166002900480601f0160208091040260200160405190810160405280929190818152602001828054600181600116156101000203166002900480156105715780601f1061054657610100808354040283529160200191610571565b820191906000526020600020905b81548152906001019060200180831161055457829003601f168201915b505050505081565b60036020528060005260406000206000915054906101000a900473ffffffffffffffffffffffffffffffffffffffff1681565b600160003373ffffffffffffffffffffffffffffffffffffffff1673ffffffffffffffffffffffffffffffffffffffff16815260200190815260200160002060009054906101000a900460ff16151515610694576040517f08c379a000000000000000000000000000000000000000000000000000000000815260040180806020018281038252602e8152602001807f566f63c3aa206ec3a36f2074656d207065726d697373c3a36f2070617261206181526020017f646963696f6e6172206461646f7300000000000000000000000000000000000081525060400191505060405180910390fd5b60008460ff161180156106aa575060008360ff16115b15156106b557600080fd5b6080604051908101604052808560ff1681526020018460ff1681526020018381526020018281525060026000600460009054906101000a900460ff1660ff1660ff16815260200190815260200160002060008201518160000160006101000a81548160ff021916908360ff16021790555060208201518160000160016101000a81548160ff021916908360ff16021790555060408201518160010190805190602001906107639291906109d0565b5060608201518160020190805190602001906107809291906109d0565b509050503360036000600460009054906101000a900460ff1660ff1660ff16815260200190815260200160002060006101000a81548173ffffffffffffffffffffffffffffffffffffffff021916908373ffffffffffffffffffffffffffffffffffffffff1602179055506004600081819054906101000a900460ff168092919060010191906101000a81548160ff021916908360ff1602179055505050505050565b60016020528060005260406000206000915054906101000a900460ff1681565b600460009054906101000a900460ff1681565b60026020528060005260406000206000915090508060000160009054906101000a900460ff16908060000160019054906101000a900460ff1690806001018054600181600116156101000203166002900480601f0160208091040260200160405190810160405280929190818152602001828054600181600116156101000203166002900480156109285780601f106108fd57610100808354040283529160200191610928565b820191906000526020600020905b81548152906001019060200180831161090b57829003601f168201915b505050505090806002018054600181600116156101000203166002900480601f0160208091040260200160405190810160405280929190818152602001828054600181600116156101000203166002900480156109c65780601f1061099b576101008083540402835291602001916109c6565b820191906000526020600020905b8154815290600101906020018083116109a957829003601f168201915b5050505050905084565b828054600181600116156101000203166002900490600052602060002090601f016020900481019282601f10610a1157805160ff1916838001178555610a3f565b82800160010185558215610a3f579182015b82811115610a3e578251825591602001919060010190610a23565b5b509050610a4c9190610a50565b5090565b610a7291905b80821115610a6e576000816000905550600101610a56565b5090565b9056fea165627a7a723058206e75564862b474eea2850195d68e8bd03016231e5a0db24d6a96acb6732210ee0029",
  "source": "pragma solidity >=0.4.21 <0.6.0;\r\n\r\ncontract Paciente{\r\n    string public name;\r\n    struct Pressure{\r\n        uint8 sistole;\r\n        uint8 diastole;\r\n        string date;\r\n        string time;\r\n    }\r\n    \r\n    mapping(address => bool) public medico;\r\n    mapping(uint8 => Pressure) public pressures;\r\n    mapping(uint8 => address) public owner;\r\n    uint8 public pressureCount;\r\n\r\n\r\n    constructor() public {\r\n        name = \"Seu contrato de pacientes\";\r\n    }\r\n    \r\n    modifier permissaoGet(address _paciente){\r\n        require(msg.sender==_paciente || medico[msg.sender], \"Você não tem Permissão para acessar este dado\");\r\n        _;\r\n    }\r\n    \r\n    modifier permissaoSet(){\r\n        require(!medico[msg.sender],\"Você não tem permissão para adicionar dados\");\r\n        _;\r\n    }\r\n    \r\n    event addedPressure(\r\n        uint8 pressureCount,\r\n        uint8 sistole,\r\n        uint8 diastole,\r\n        uint8 hora,\r\n        uint8 minuto\r\n        );\r\n    \r\n    function addPressao(uint8 _sistole, uint8 _diastole, string memory _date, string memory _time) public permissaoSet(){\r\n        // requisitos\r\n        require(_sistole > 0 && _diastole > 0);\r\n        \r\n        // adicionar Pressão e atualizar o tamanho da lista de pressões\r\n        \r\n        pressures[pressureCount] = Pressure(_sistole, _diastole, _date, _time);\r\n        owner[pressureCount] = msg.sender;\r\n        pressureCount++;\r\n        \r\n        // emitir um evento\r\n        \r\n        //emit addedPressure(pressureCount,_sistole, _diastole, _hora, _minuto);\r\n    }\r\n}",
  "sourcePath": "C:/Users/gabri/Documents/Faculdade/Atividades Extras/blockchain-teste/src/contracts/Paciente.sol",
  "compiler": {
    "name": "solc",
    "version": "0.5.0+commit.1d4f565a.Emscripten.clang"
  },
  "schemaVersion": "3.0.2",
  "updatedAt": "2020-05-22T00:44:05.082Z",
  "devdoc": {
    "methods": {}
  },
  "userdoc": {
    "methods": {}
  }
}