{
  "contractName": "Paciente",
  "abi": [
    {
      "inputs": [],
      "payable": false,
      "stateMutability": "nonpayable",
      "type": "constructor",
      "signature": "constructor"
    },
    {
      "anonymous": false,
      "inputs": [
        {
          "indexed": false,
          "name": "sistole",
          "type": "uint8"
        },
        {
          "indexed": false,
          "name": "diastole",
          "type": "uint8"
        },
        {
          "indexed": false,
          "name": "date",
          "type": "uint256"
        }
      ],
      "name": "addedPressure",
      "type": "event",
      "signature": "0xfd3fbfe8e01eccac7d19d0009b66d6edb5f8689da42ad72472872edfca809254"
    },
    {
      "anonymous": false,
      "inputs": [
        {
          "indexed": false,
          "name": "name",
          "type": "string"
        },
        {
          "indexed": false,
          "name": "id",
          "type": "string"
        }
      ],
      "name": "registered",
      "type": "event",
      "signature": "0x9605ffab6edb0e9f1d7069502dcdfccbc4d9371c83dfb3701bb791e40c488fe2"
    },
    {
      "anonymous": false,
      "inputs": [
        {
          "indexed": false,
          "name": "id",
          "type": "string"
        },
        {
          "indexed": false,
          "name": "patient",
          "type": "address"
        }
      ],
      "name": "addedPatient",
      "type": "event",
      "signature": "0xa099af22f49d79591b41eb172dbda0a9c3f08edb1e917794a24170e72185e45f"
    },
    {
      "anonymous": false,
      "inputs": [
        {
          "indexed": false,
          "name": "id",
          "type": "string"
        },
        {
          "indexed": false,
          "name": "newDoctor",
          "type": "address"
        }
      ],
      "name": "addedDoctor",
      "type": "event",
      "signature": "0xa2dc58da2341fe1dee050dbdb24c2b7efdd765c75159842cf2f8d85dda30b9ab"
    },
    {
      "constant": false,
      "inputs": [
        {
          "name": "_sistole",
          "type": "uint8"
        },
        {
          "name": "_diastole",
          "type": "uint8"
        },
        {
          "name": "_date",
          "type": "uint256"
        }
      ],
      "name": "addPressure",
      "outputs": [],
      "payable": false,
      "stateMutability": "nonpayable",
      "type": "function",
      "signature": "0x0fafc3de"
    },
    {
      "constant": false,
      "inputs": [
        {
          "name": "_id",
          "type": "string"
        }
      ],
      "name": "addPatient",
      "outputs": [],
      "payable": false,
      "stateMutability": "nonpayable",
      "type": "function",
      "signature": "0xfb87cf94"
    },
    {
      "constant": false,
      "inputs": [
        {
          "name": "_id",
          "type": "string"
        }
      ],
      "name": "addDoctor",
      "outputs": [],
      "payable": false,
      "stateMutability": "nonpayable",
      "type": "function",
      "signature": "0x0be61700"
    },
    {
      "constant": false,
      "inputs": [
        {
          "name": "_name",
          "type": "string"
        },
        {
          "name": "_id",
          "type": "string"
        }
      ],
      "name": "register",
      "outputs": [],
      "payable": false,
      "stateMutability": "nonpayable",
      "type": "function",
      "signature": "0x3ffbd47f"
    },
    {
      "constant": true,
      "inputs": [
        {
          "name": "_owner",
          "type": "address"
        }
      ],
      "name": "getPressure",
      "outputs": [
        {
          "name": "",
          "type": "uint8[]"
        },
        {
          "name": "",
          "type": "uint8[]"
        },
        {
          "name": "",
          "type": "uint256[]"
        }
      ],
      "payable": false,
      "stateMutability": "view",
      "type": "function",
      "signature": "0x333847b0"
    },
    {
      "constant": true,
      "inputs": [],
      "name": "getPressureCount",
      "outputs": [
        {
          "name": "",
          "type": "uint256"
        }
      ],
      "payable": false,
      "stateMutability": "view",
      "type": "function",
      "signature": "0xcbbae0c1"
    },
    {
      "constant": true,
      "inputs": [
        {
          "name": "__user",
          "type": "address"
        }
      ],
      "name": "getUser",
      "outputs": [
        {
          "name": "",
          "type": "string"
        },
        {
          "name": "",
          "type": "bool"
        },
        {
          "name": "",
          "type": "string"
        },
        {
          "name": "",
          "type": "uint16"
        },
        {
          "name": "",
          "type": "address[]"
        }
      ],
      "payable": false,
      "stateMutability": "view",
      "type": "function",
      "signature": "0x6f77926b"
    },
    {
      "constant": true,
      "inputs": [
        {
          "name": "_id",
          "type": "string"
        }
      ],
      "name": "getUserId",
      "outputs": [
        {
          "name": "",
          "type": "address"
        }
      ],
      "payable": false,
      "stateMutability": "view",
      "type": "function",
      "signature": "0xdb1ef71f"
    },
    {
      "constant": false,
      "inputs": [],
      "name": "trocaUser",
      "outputs": [],
      "payable": false,
      "stateMutability": "nonpayable",
      "type": "function",
      "signature": "0xc329d794"
    }
  ],
  "bytecode": "0x608060405234801561001057600080fd5b5060016000803373ffffffffffffffffffffffffffffffffffffffff1673ffffffffffffffffffffffffffffffffffffffff16815260200190815260200160002060010160006101000a81548160ff0219169083151502179055506119328061007a6000396000f3fe608060405260043610610099576000357c0100000000000000000000000000000000000000000000000000000000900463ffffffff1680630be617001461009e5780630fafc3de14610166578063333847b0146101bb5780633ffbd47f146102f15780636f77926b14610450578063c329d794146105e8578063cbbae0c1146105ff578063db1ef71f1461062a578063fb87cf9414610732575b600080fd5b3480156100aa57600080fd5b50610164600480360360208110156100c157600080fd5b81019080803590602001906401000000008111156100de57600080fd5b8201836020820111156100f057600080fd5b8035906020019184600183028401116401000000008311171561011257600080fd5b91908080601f016020809104026020016040519081016040528093929190818152602001838380828437600081840152601f19601f8201169050808301925050505050505091929192905050506107fa565b005b34801561017257600080fd5b506101b96004803603606081101561018957600080fd5b81019080803560ff169060200190929190803560ff16906020019092919080359060200190929190505050610aa8565b005b3480156101c757600080fd5b5061020a600480360360208110156101de57600080fd5b81019080803573ffffffffffffffffffffffffffffffffffffffff169060200190929190505050610c6f565b60405180806020018060200180602001848103845287818151815260200191508051906020019060200280838360005b8381101561025557808201518184015260208101905061023a565b50505050905001848103835286818151815260200191508051906020019060200280838360005b8381101561029757808201518184015260208101905061027c565b50505050905001848103825285818151815260200191508051906020019060200280838360005b838110156102d95780820151818401526020810190506102be565b50505050905001965050505050505060405180910390f35b3480156102fd57600080fd5b5061044e6004803603604081101561031457600080fd5b810190808035906020019064010000000081111561033157600080fd5b82018360208201111561034357600080fd5b8035906020019184600183028401116401000000008311171561036557600080fd5b91908080601f016020809104026020016040519081016040528093929190818152602001838380828437600081840152601f19601f820116905080830192505050505050509192919290803590602001906401000000008111156103c857600080fd5b8201836020820111156103da57600080fd5b803590602001918460018302840111640100000000831117156103fc57600080fd5b91908080601f016020809104026020016040519081016040528093929190818152602001838380828437600081840152601f19601f820116905080830192505050505050509192919290505050610edf565b005b34801561045c57600080fd5b5061049f6004803603602081101561047357600080fd5b81019080803573ffffffffffffffffffffffffffffffffffffffff169060200190929190505050611142565b604051808060200186151515158152602001806020018561ffff1661ffff16815260200180602001848103845289818151815260200191508051906020019080838360005b838110156104ff5780820151818401526020810190506104e4565b50505050905090810190601f16801561052c5780820380516001836020036101000a031916815260200191505b50848103835287818151815260200191508051906020019080838360005b8381101561056557808201518184015260208101905061054a565b50505050905090810190601f1680156105925780820380516001836020036101000a031916815260200191505b50848103825285818151815260200191508051906020019060200280838360005b838110156105ce5780820151818401526020810190506105b3565b505050509050019850505050505050505060405180910390f35b3480156105f457600080fd5b506105fd6113e3565b005b34801561060b57600080fd5b50610614611493565b6040518082815260200191505060405180910390f35b34801561063657600080fd5b506106f06004803603602081101561064d57600080fd5b810190808035906020019064010000000081111561066a57600080fd5b82018360208201111561067c57600080fd5b8035906020019184600183028401116401000000008311171561069e57600080fd5b91908080601f016020809104026020016040519081016040528093929190818152602001838380828437600081840152601f19601f82011690508083019250505050505050919291929050505061149d565b604051808273ffffffffffffffffffffffffffffffffffffffff1673ffffffffffffffffffffffffffffffffffffffff16815260200191505060405180910390f35b34801561073e57600080fd5b506107f86004803603602081101561075557600080fd5b810190808035906020019064010000000081111561077257600080fd5b82018360208201111561078457600080fd5b803590602001918460018302840111640100000000831117156107a657600080fd5b91908080601f016020809104026020016040519081016040528093929190818152602001838380828437600081840152601f19601f820116905080830192505050505050509192919290505050611532565b005b60006001826040518082805190602001908083835b602083101515610834578051825260208201915060208101905060208303925061080f565b6001836020036101000a038019825116818451168082178552505050505050905001915050908152602001604051809103902060009054906101000a900473ffffffffffffffffffffffffffffffffffffffff169050600115156000803373ffffffffffffffffffffffffffffffffffffffff1673ffffffffffffffffffffffffffffffffffffffff16815260200190815260200160002060010160009054906101000a900460ff16151514151561097a576040517f08c379a00000000000000000000000000000000000000000000000000000000081526004018080602001828103825260378152602001807f566f63c3aa206ec3a36f2074656d207065726d697373c3a36f2070617261206181526020017f646963696f6e6172206e6f766f73206dc3a96469636f7300000000000000000081525060400191505060405180910390fd5b60016000808373ffffffffffffffffffffffffffffffffffffffff1673ffffffffffffffffffffffffffffffffffffffff16815260200190815260200160002060010160006101000a81548160ff0219169083151502179055507fa2dc58da2341fe1dee050dbdb24c2b7efdd765c75159842cf2f8d85dda30b9ab828260405180806020018373ffffffffffffffffffffffffffffffffffffffff1673ffffffffffffffffffffffffffffffffffffffff168152602001828103825284818151815260200191508051906020019080838360005b83811015610a69578082015181840152602081019050610a4e565b50505050905090810190601f168015610a965780820380516001836020036101000a031916815260200191505b50935050505060405180910390a15050565b6080604051908101604052808460ff1681526020018360ff1681526020018281526020013373ffffffffffffffffffffffffffffffffffffffff1681525060026000600354815260200190815260200160002060008201518160000160006101000a81548160ff021916908360ff16021790555060208201518160000160016101000a81548160ff021916908360ff1602179055506040820151816001015560608201518160020160006101000a81548173ffffffffffffffffffffffffffffffffffffffff021916908373ffffffffffffffffffffffffffffffffffffffff1602179055509050506000803373ffffffffffffffffffffffffffffffffffffffff1673ffffffffffffffffffffffffffffffffffffffff168152602001908152602001600020600301600081819054906101000a900461ffff168092919060010191906101000a81548161ffff021916908361ffff160217905550506003600081548092919060010191905055507ffd3fbfe8e01eccac7d19d0009b66d6edb5f8689da42ad72472872edfca809254838383604051808460ff1660ff1681526020018360ff1660ff168152602001828152602001935050505060405180910390a1505050565b606080606060008060008673ffffffffffffffffffffffffffffffffffffffff1673ffffffffffffffffffffffffffffffffffffffff16815260200190815260200160002060030160009054906101000a900461ffff1661ffff1690506000606082604051908082528060200260200182016040528015610cff5781602001602082028038833980820191505090505b509050606083604051908082528060200260200182016040528015610d335781602001602082028038833980820191505090505b509050606084604051908082528060200260200182016040528015610d675781602001602082028038833980820191505090505b50905060008090505b600354811015610ec9578973ffffffffffffffffffffffffffffffffffffffff166002600083815260200190815260200160002060020160009054906101000a900473ffffffffffffffffffffffffffffffffffffffff1673ffffffffffffffffffffffffffffffffffffffff161415610ebc576002600082815260200190815260200160002060000160009054906101000a900460ff16848661ffff16815181101515610e1a57fe5b9060200190602002019060ff16908160ff16815250506002600082815260200190815260200160002060000160019054906101000a900460ff16838661ffff16815181101515610e6657fe5b9060200190602002019060ff16908160ff16815250506002600082815260200190815260200160002060010154828661ffff16815181101515610ea557fe5b906020019060200201818152505084806001019550505b8080600101915050610d70565b5082828297509750975050505050509193909250565b816000803373ffffffffffffffffffffffffffffffffffffffff1673ffffffffffffffffffffffffffffffffffffffff1681526020019081526020016000206000019080519060200190610f3492919061182b565b50806000803373ffffffffffffffffffffffffffffffffffffffff1673ffffffffffffffffffffffffffffffffffffffff1681526020019081526020016000206002019080519060200190610f8a92919061182b565b50336001826040518082805190602001908083835b602083101515610fc45780518252602082019150602081019050602083039250610f9f565b6001836020036101000a038019825116818451168082178552505050505050905001915050908152602001604051809103902060006101000a81548173ffffffffffffffffffffffffffffffffffffffff021916908373ffffffffffffffffffffffffffffffffffffffff1602179055507f9605ffab6edb0e9f1d7069502dcdfccbc4d9371c83dfb3701bb791e40c488fe28282604051808060200180602001838103835285818151815260200191508051906020019080838360005b8381101561109c578082015181840152602081019050611081565b50505050905090810190601f1680156110c95780820380516001836020036101000a031916815260200191505b50838103825284818151815260200191508051906020019080838360005b838110156111025780820151818401526020810190506110e7565b50505050905090810190601f16801561112f5780820380516001836020036101000a031916815260200191505b5094505050505060405180910390a15050565b606060006060600060606111546118ab565b6000808873ffffffffffffffffffffffffffffffffffffffff1673ffffffffffffffffffffffffffffffffffffffff16815260200190815260200160002060a06040519081016040529081600082018054600181600116156101000203166002900480601f0160208091040260200160405190810160405280929190818152602001828054600181600116156101000203166002900480156112375780601f1061120c57610100808354040283529160200191611237565b820191906000526020600020905b81548152906001019060200180831161121a57829003601f168201915b505050505081526020016001820160009054906101000a900460ff16151515158152602001600282018054600181600116156101000203166002900480601f0160208091040260200160405190810160405280929190818152602001828054600181600116156101000203166002900480156112f45780601f106112c9576101008083540402835291602001916112f4565b820191906000526020600020905b8154815290600101906020018083116112d757829003601f168201915b505050505081526020016003820160009054906101000a900461ffff1661ffff1661ffff168152602001600482018054806020026020016040519081016040528092919081815260200182805480156113a257602002820191906000526020600020905b8160009054906101000a900473ffffffffffffffffffffffffffffffffffffffff1673ffffffffffffffffffffffffffffffffffffffff1681526020019060010190808311611358575b505050505081525050905080600001518160200151826040015183606001518460800151849450829250809050955095509550955095505091939590929450565b60008060003373ffffffffffffffffffffffffffffffffffffffff1673ffffffffffffffffffffffffffffffffffffffff16815260200190815260200160002060010160009054906101000a900460ff16905080156000803373ffffffffffffffffffffffffffffffffffffffff1673ffffffffffffffffffffffffffffffffffffffff16815260200190815260200160002060010160006101000a81548160ff02191690831515021790555050565b6000600354905090565b60006001826040518082805190602001908083835b6020831015156114d757805182526020820191506020810190506020830392506114b2565b6001836020036101000a038019825116818451168082178552505050505050905001915050908152602001604051809103902060009054906101000a900473ffffffffffffffffffffffffffffffffffffffff169050919050565b60006001826040518082805190602001908083835b60208310151561156c5780518252602082019150602081019050602083039250611547565b6001836020036101000a038019825116818451168082178552505050505050905001915050908152602001604051809103902060009054906101000a900473ffffffffffffffffffffffffffffffffffffffff169050600115156000803373ffffffffffffffffffffffffffffffffffffffff1673ffffffffffffffffffffffffffffffffffffffff16815260200190815260200160002060010160009054906101000a900460ff1615151415156116b2576040517f08c379a00000000000000000000000000000000000000000000000000000000081526004018080602001828103825260328152602001807f566f63c3aa206ec3a36f2074656d207065726d697373c3a36f2070617261206181526020017f646963696f6e61722070616369656e746573000000000000000000000000000081525060400191505060405180910390fd5b6000803373ffffffffffffffffffffffffffffffffffffffff1673ffffffffffffffffffffffffffffffffffffffff1681526020019081526020016000206004018190806001815401808255809150509060018203906000526020600020016000909192909190916101000a81548173ffffffffffffffffffffffffffffffffffffffff021916908373ffffffffffffffffffffffffffffffffffffffff160217905550507fa099af22f49d79591b41eb172dbda0a9c3f08edb1e917794a24170e72185e45f828260405180806020018373ffffffffffffffffffffffffffffffffffffffff1673ffffffffffffffffffffffffffffffffffffffff168152602001828103825284818151815260200191508051906020019080838360005b838110156117ec5780820151818401526020810190506117d1565b50505050905090810190601f1680156118195780820380516001836020036101000a031916815260200191505b50935050505060405180910390a15050565b828054600181600116156101000203166002900490600052602060002090601f016020900481019282601f1061186c57805160ff191683800117855561189a565b8280016001018555821561189a579182015b8281111561189957825182559160200191906001019061187e565b5b5090506118a791906118e1565b5090565b60a0604051908101604052806060815260200160001515815260200160608152602001600061ffff168152602001606081525090565b61190391905b808211156118ff5760008160009055506001016118e7565b5090565b9056fea165627a7a7230582095083804585613f5fb681cf111c7a498c83602a96012cc415e5d820988d6eaeb0029",
  "source": "pragma solidity >=0.5.0 <=0.6.5;\r\n\r\ncontract Paciente{\r\n    struct Pressure{\r\n        uint8 sistole;\r\n        uint8 diastole;\r\n        uint256 date;\r\n        address owner;\r\n    }\r\n    \r\n    struct Data{\r\n        string name;\r\n        bool isDoctor;\r\n        string id;\r\n        uint16 myPressureCount;\r\n        address[] patients;\r\n    }\r\n    \r\n    mapping(address => Data) user;\r\n    mapping(string => address) userId;\r\n    mapping(uint256 => Pressure) pressures;\r\n    uint256 pressureCount;\r\n    \r\n    constructor() public {\r\n        user[msg.sender].isDoctor = true;\r\n    }\r\n    \r\n    event addedPressure(uint8 sistole, uint8 diastole, uint256 date);\r\n    event registered(string name, string id);\r\n    event addedPatient(string id, address patient);\r\n    event addedDoctor(string id, address newDoctor);\r\n    \r\n    function addPressure(uint8 _sistole, uint8 _diastole, uint256 _date) public{\r\n        pressures[pressureCount] = Pressure(_sistole, _diastole,_date, msg.sender);\r\n        user[msg.sender].myPressureCount++;\r\n        pressureCount++;\r\n        emit addedPressure(_sistole, _diastole, _date);\r\n    }\r\n    \r\n    function addPatient(string memory _id) public{\r\n        address _user = userId[_id];\r\n        require(user[msg.sender].isDoctor == true, \"Você não tem permissão para adicionar pacientes\");\r\n        user[msg.sender].patients.push(_user);\r\n        emit addedPatient(_id, _user);\r\n    }\r\n    \r\n    function addDoctor(string memory _id) public{\r\n        address _user = userId[_id];\r\n        require(user[msg.sender].isDoctor == true, \"Você não tem permissão para adicionar novos médicos\");\r\n        user[_user].isDoctor = true;\r\n        emit addedDoctor(_id, _user);\r\n    }\r\n    \r\n    function register(string memory _name, string memory _id) public{\r\n        user[msg.sender].name = _name;\r\n        user[msg.sender].id = _id;\r\n        userId[_id] = msg.sender;\r\n        emit registered(_name, _id);\r\n    }\r\n    \r\n    function getPressure(address _owner) public view returns(uint8[] memory, uint8[] memory, uint256[] memory){\r\n        uint256 myPressureCount = user[_owner].myPressureCount;\r\n        uint16 current;\r\n        uint8[] memory sistoles = new uint8[](myPressureCount);\r\n        uint8[] memory diastoles = new uint8[](myPressureCount);\r\n        uint256[] memory dates = new uint256[](myPressureCount);\r\n        \r\n        for(uint256 i=0; i<pressureCount;i++){\r\n            if(pressures[i].owner == _owner){\r\n                sistoles[current] = (pressures[i].sistole);\r\n                diastoles[current] = (pressures[i].diastole);\r\n                dates[current] = (pressures[i].date);\r\n                current++;\r\n            }\r\n        }\r\n        return (sistoles,diastoles,dates);\r\n    }\r\n    \r\n    function getPressureCount() public view returns(uint256){\r\n        return pressureCount;\r\n    }\r\n    \r\n    function getUser(address __user) public view returns(string memory, bool, string memory, uint16, address[] memory){\r\n        Data memory _user = user[__user];\r\n        return (_user.name, _user.isDoctor, _user.id, _user.myPressureCount, _user.patients);\r\n    }\r\n    \r\n    function getUserId(string memory _id) public view returns(address){\r\n        return userId[_id];\r\n    }\r\n    \r\n    function trocaUser() public{\r\n        bool isDoctor = user[msg.sender].isDoctor;\r\n        user[msg.sender].isDoctor= !isDoctor;\r\n    }\r\n    \r\n}",
  "sourcePath": "C:/Users/gabri/Documents/Faculdade/Atividades Extras/blockchain-teste/src/blockchain/contracts/Paciente.sol",
  "compiler": {
    "name": "solc",
    "version": "0.5.0+commit.1d4f565a.Emscripten.clang"
  },
  "schemaVersion": "3.0.2",
  "updatedAt": "2020-07-02T02:16:52.449Z",
  "devdoc": {
    "methods": {}
  },
  "userdoc": {
    "methods": {}
  }
}